{
  "_format": "hh-sol-artifact-1",
  "contractName": "Validate",
  "sourceName": "contracts/Validate.sol",
  "abi": [
    {
      "anonymous": false,
      "inputs": [
        {
          "indexed": false,
          "internalType": "bool",
          "name": "isValidated",
          "type": "bool"
        },
        {
          "indexed": false,
          "internalType": "bool",
          "name": "isExpired",
          "type": "bool"
        },
        {
          "indexed": false,
          "internalType": "bytes32",
          "name": "ticketId",
          "type": "bytes32"
        }
      ],
      "name": "CheckValidity",
      "type": "event"
    },
    {
      "inputs": [
        {
          "internalType": "bytes32",
          "name": "ticketId",
          "type": "bytes32"
        }
      ],
      "name": "getValidity",
      "outputs": [
        {
          "internalType": "bool",
          "name": "",
          "type": "bool"
        },
        {
          "internalType": "bool",
          "name": "",
          "type": "bool"
        }
      ],
      "stateMutability": "view",
      "type": "function"
    },
    {
      "inputs": [
        {
          "internalType": "bool",
          "name": "isValidated",
          "type": "bool"
        },
        {
          "internalType": "bool",
          "name": "isExpired",
          "type": "bool"
        },
        {
          "internalType": "bytes32",
          "name": "ticketId",
          "type": "bytes32"
        }
      ],
      "name": "setValidity",
      "outputs": [],
      "stateMutability": "nonpayable",
      "type": "function"
    },
    {
      "inputs": [
        {
          "internalType": "uint256",
          "name": "",
          "type": "uint256"
        }
      ],
      "name": "tickets",
      "outputs": [
        {
          "internalType": "bool",
          "name": "isValidated",
          "type": "bool"
        },
        {
          "internalType": "bool",
          "name": "isExpired",
          "type": "bool"
        },
        {
          "internalType": "bytes32",
          "name": "ticketId",
          "type": "bytes32"
        }
      ],
      "stateMutability": "view",
      "type": "function"
    }
  ],
  "bytecode": "0x608060405234801561001057600080fd5b506105a3806100206000396000f3fe608060405234801561001057600080fd5b50600436106100415760003560e01c806350b4471214610046578063ad8e3c0014610078578063b6a8fc3f146100a9575b600080fd5b610060600480360381019061005b91906103e9565b6100c5565b60405161006f93929190610459565b60405180910390f35b610092600480360381019061008d91906103c0565b610119565b6040516100a0929190610430565b60405180910390f35b6100c360048036038101906100be9190610371565b61025c565b005b600081815481106100d557600080fd5b90600052602060002090600202016000915090508060000160009054906101000a900460ff16908060000160019054906101000a900460ff16908060010154905083565b60008060005b60008054905081101561024e578360008281548110610167577f4e487b7100000000000000000000000000000000000000000000000000000000600052603260045260246000fd5b906000526020600020906002020160010154141561023b57600081815481106101b9577f4e487b7100000000000000000000000000000000000000000000000000000000600052603260045260246000fd5b906000526020600020906002020160000160009054906101000a900460ff1660008281548110610212577f4e487b7100000000000000000000000000000000000000000000000000000000600052603260045260246000fd5b906000526020600020906002020160000160019054906101000a900460ff169250925050610257565b8080610246906104b0565b91505061011f565b50600080915091505b915091565b600060405180606001604052808515158152602001841515815260200183815250908060018154018082558091505060019003906000526020600020906002020160009091909190915060008201518160000160006101000a81548160ff02191690831515021790555060208201518160000160016101000a81548160ff0219169083151502179055506040820151816001015550507faf26a2f9d11a2d09f3407158ab5730fc5f9e3df09519c3aaecdd1531eaea727483838360405161032593929190610459565b60405180910390a1505050565b60008135905061034181610528565b92915050565b6000813590506103568161053f565b92915050565b60008135905061036b81610556565b92915050565b60008060006060848603121561038657600080fd5b600061039486828701610332565b93505060206103a586828701610332565b92505060406103b686828701610347565b9150509250925092565b6000602082840312156103d257600080fd5b60006103e084828501610347565b91505092915050565b6000602082840312156103fb57600080fd5b60006104098482850161035c565b91505092915050565b61041b81610490565b82525050565b61042a8161049c565b82525050565b60006040820190506104456000830185610412565b6104526020830184610412565b9392505050565b600060608201905061046e6000830186610412565b61047b6020830185610412565b6104886040830184610421565b949350505050565b60008115159050919050565b6000819050919050565b6000819050919050565b60006104bb826104a6565b91507fffffffffffffffffffffffffffffffffffffffffffffffffffffffffffffffff8214156104ee576104ed6104f9565b5b600182019050919050565b7f4e487b7100000000000000000000000000000000000000000000000000000000600052601160045260246000fd5b61053181610490565b811461053c57600080fd5b50565b6105488161049c565b811461055357600080fd5b50565b61055f816104a6565b811461056a57600080fd5b5056fea26469706673582212200e70678b8f784879c0d74c7f357dfb00ba9b3ee53ad25aa1f836c9b3e601f13064736f6c63430008010033",
  "linkReferences": {},
  "deployedLinkReferences": {}
}